{
  "_format": "hh-sol-artifact-1",
  "contractName": "IssueReport",
  "sourceName": "contracts/IssueReport.sol",
  "abi": [
    {
      "anonymous": false,
      "inputs": [
        {
          "indexed": true,
          "internalType": "uint256",
          "name": "id",
          "type": "uint256"
        },
        {
          "indexed": false,
          "internalType": "bytes32",
          "name": "aiHash",
          "type": "bytes32"
        }
      ],
      "name": "AIHashSubmitted",
      "type": "event"
    },
    {
      "anonymous": false,
      "inputs": [
        {
          "indexed": true,
          "internalType": "uint256",
          "name": "id",
          "type": "uint256"
        },
        {
          "indexed": false,
          "internalType": "address",
          "name": "reporter",
          "type": "address"
        }
      ],
      "name": "IssueSubmitted",
      "type": "event"
    },
    {
      "inputs": [
        {
          "internalType": "uint256",
          "name": "",
          "type": "uint256"
        }
      ],
      "name": "reports",
      "outputs": [
        {
          "internalType": "address",
          "name": "reporter",
          "type": "address"
        },
        {
          "internalType": "string",
          "name": "imageHash",
          "type": "string"
        },
        {
          "internalType": "string",
          "name": "issueType",
          "type": "string"
        },
        {
          "internalType": "uint256",
          "name": "baseSeverity",
          "type": "uint256"
        },
        {
          "internalType": "uint256",
          "name": "adjustedSeverity",
          "type": "uint256"
        },
        {
          "internalType": "string",
          "name": "location",
          "type": "string"
        },
        {
          "internalType": "uint256",
          "name": "timestamp",
          "type": "uint256"
        },
        {
          "internalType": "bytes32",
          "name": "aiHash",
          "type": "bytes32"
        },
        {
          "internalType": "bool",
          "name": "aiVerified",
          "type": "bool"
        }
      ],
      "stateMutability": "view",
      "type": "function"
    },
    {
      "inputs": [
        {
          "internalType": "uint256",
          "name": "reportId",
          "type": "uint256"
        },
        {
          "internalType": "bytes32",
          "name": "aiHash",
          "type": "bytes32"
        }
      ],
      "name": "submitAIHash",
      "outputs": [],
      "stateMutability": "nonpayable",
      "type": "function"
    },
    {
      "inputs": [
        {
          "internalType": "string",
          "name": "_imageHash",
          "type": "string"
        },
        {
          "internalType": "string",
          "name": "_issueType",
          "type": "string"
        },
        {
          "internalType": "uint256",
          "name": "_baseSeverity",
          "type": "uint256"
        },
        {
          "internalType": "string",
          "name": "_location",
          "type": "string"
        }
      ],
      "name": "submitIssue",
      "outputs": [],
      "stateMutability": "nonpayable",
      "type": "function"
    },
    {
      "inputs": [],
      "name": "totalReports",
      "outputs": [
        {
          "internalType": "uint256",
          "name": "",
          "type": "uint256"
        }
      ],
      "stateMutability": "view",
      "type": "function"
    }
  ],
  "bytecode": "0x608060405234801561001057600080fd5b50610e95806100206000396000f3fe608060405234801561001057600080fd5b506004361061004c5760003560e01c80630ee76b08146100515780634d7803c01461006d578063b00eba4f14610089578063c942adf7146100a7575b600080fd5b61006b60048036038101906100669190610739565b6100df565b005b6100876004803603810190610082919061082a565b61028f565b005b61009161037a565b60405161009e9190610879565b60405180910390f35b6100c160048036038101906100bc9190610894565b610386565b6040516100d6999897969594939291906109ab565b60405180910390f35b600082905060006040518061012001604052803373ffffffffffffffffffffffffffffffffffffffff1681526020018781526020018681526020018581526020018381526020018481526020014281526020016000801b815260200160001515815250908060018154018082558091505060019003906000526020600020906009020160009091909190915060008201518160000160006101000a81548173ffffffffffffffffffffffffffffffffffffffff021916908373ffffffffffffffffffffffffffffffffffffffff16021790555060208201518160010190816101c79190610c59565b5060408201518160020190816101dd9190610c59565b50606082015181600301556080820151816004015560a08201518160050190816102079190610c59565b5060c0820151816006015560e082015181600701556101008201518160080160006101000a81548160ff021916908315150217905550505060016000805490506102519190610d5a565b7f218bbcba1a330835c65071c80cf2f41ff8a4f7edf5997ee10af5f3e4e7b973d1336040516102809190610d8e565b60405180910390a25050505050565b60008054905082106102d6576040517f08c379a00000000000000000000000000000000000000000000000000000000081526004016102cd90610df5565b60405180910390fd5b80600083815481106102eb576102ea610e15565b5b90600052602060002090600902016007018190555060016000838154811061031657610315610e15565b5b906000526020600020906009020160080160006101000a81548160ff021916908315150217905550817f962024c83a7886dbc16bdc7bc504702542ab6684a2cf6d35f4bcce636865fd0f8260405161036e9190610e44565b60405180910390a25050565b60008080549050905090565b6000818154811061039657600080fd5b90600052602060002090600902016000915090508060000160009054906101000a900473ffffffffffffffffffffffffffffffffffffffff16908060010180546103df90610a7c565b80601f016020809104026020016040519081016040528092919081815260200182805461040b90610a7c565b80156104585780601f1061042d57610100808354040283529160200191610458565b820191906000526020600020905b81548152906001019060200180831161043b57829003601f168201915b50505050509080600201805461046d90610a7c565b80601f016020809104026020016040519081016040528092919081815260200182805461049990610a7c565b80156104e65780601f106104bb576101008083540402835291602001916104e6565b820191906000526020600020905b8154815290600101906020018083116104c957829003601f168201915b50505050509080600301549080600401549080600501805461050790610a7c565b80601f016020809104026020016040519081016040528092919081815260200182805461053390610a7c565b80156105805780601f1061055557610100808354040283529160200191610580565b820191906000526020600020905b81548152906001019060200180831161056357829003601f168201915b5050505050908060060154908060070154908060080160009054906101000a900460ff16905089565b6000604051905090565b600080fd5b600080fd5b600080fd5b600080fd5b6000601f19601f8301169050919050565b7f4e487b7100000000000000000000000000000000000000000000000000000000600052604160045260246000fd5b610610826105c7565b810181811067ffffffffffffffff8211171561062f5761062e6105d8565b5b80604052505050565b60006106426105a9565b905061064e8282610607565b919050565b600067ffffffffffffffff82111561066e5761066d6105d8565b5b610677826105c7565b9050602081019050919050565b82818337600083830152505050565b60006106a66106a184610653565b610638565b9050828152602081018484840111156106c2576106c16105c2565b5b6106cd848285610684565b509392505050565b600082601f8301126106ea576106e96105bd565b5b81356106fa848260208601610693565b91505092915050565b6000819050919050565b61071681610703565b811461072157600080fd5b50565b6000813590506107338161070d565b92915050565b60008060008060808587031215610753576107526105b3565b5b600085013567ffffffffffffffff811115610771576107706105b8565b5b61077d878288016106d5565b945050602085013567ffffffffffffffff81111561079e5761079d6105b8565b5b6107aa878288016106d5565b93505060406107bb87828801610724565b925050606085013567ffffffffffffffff8111156107dc576107db6105b8565b5b6107e8878288016106d5565b91505092959194509250565b6000819050919050565b610807816107f4565b811461081257600080fd5b50565b600081359050610824816107fe565b92915050565b60008060408385031215610841576108406105b3565b5b600061084f85828601610724565b925050602061086085828601610815565b9150509250929050565b61087381610703565b82525050565b600060208201905061088e600083018461086a565b92915050565b6000602082840312156108aa576108a96105b3565b5b60006108b884828501610724565b91505092915050565b600073ffffffffffffffffffffffffffffffffffffffff82169050919050565b60006108ec826108c1565b9050919050565b6108fc816108e1565b82525050565b600081519050919050565b600082825260208201905092915050565b60005b8381101561093c578082015181840152602081019050610921565b60008484015250505050565b600061095382610902565b61095d818561090d565b935061096d81856020860161091e565b610976816105c7565b840191505092915050565b61098a816107f4565b82525050565b60008115159050919050565b6109a581610990565b82525050565b6000610120820190506109c1600083018c6108f3565b81810360208301526109d3818b610948565b905081810360408301526109e7818a610948565b90506109f6606083018961086a565b610a03608083018861086a565b81810360a0830152610a158187610948565b9050610a2460c083018661086a565b610a3160e0830185610981565b610a3f61010083018461099c565b9a9950505050505050505050565b7f4e487b7100000000000000000000000000000000000000000000000000000000600052602260045260246000fd5b60006002820490506001821680610a9457607f821691505b602082108103610aa757610aa6610a4d565b5b50919050565b60008190508160005260206000209050919050565b60006020601f8301049050919050565b600082821b905092915050565b600060088302610b0f7fffffffffffffffffffffffffffffffffffffffffffffffffffffffffffffffff82610ad2565b610b198683610ad2565b95508019841693508086168417925050509392505050565b6000819050919050565b6000610b56610b51610b4c84610703565b610b31565b610703565b9050919050565b6000819050919050565b610b7083610b3b565b610b84610b7c82610b5d565b848454610adf565b825550505050565b600090565b610b99610b8c565b610ba4818484610b67565b505050565b5b81811015610bc857610bbd600082610b91565b600181019050610baa565b5050565b601f821115610c0d57610bde81610aad565b610be784610ac2565b81016020851015610bf6578190505b610c0a610c0285610ac2565b830182610ba9565b50505b505050565b600082821c905092915050565b6000610c3060001984600802610c12565b1980831691505092915050565b6000610c498383610c1f565b9150826002028217905092915050565b610c6282610902565b67ffffffffffffffff811115610c7b57610c7a6105d8565b5b610c858254610a7c565b610c90828285610bcc565b600060209050601f831160018114610cc35760008415610cb1578287015190505b610cbb8582610c3d565b865550610d23565b601f198416610cd186610aad565b60005b82811015610cf957848901518255600182019150602085019450602081019050610cd4565b86831015610d165784890151610d12601f891682610c1f565b8355505b6001600288020188555050505b505050505050565b7f4e487b7100000000000000000000000000000000000000000000000000000000600052601160045260246000fd5b6000610d6582610703565b9150610d7083610703565b9250828203905081811115610d8857610d87610d2b565b5b92915050565b6000602082019050610da360008301846108f3565b92915050565b7f496e76616c6964207265706f7274204944000000000000000000000000000000600082015250565b6000610ddf60118361090d565b9150610dea82610da9565b602082019050919050565b60006020820190508181036000830152610e0e81610dd2565b9050919050565b7f4e487b7100000000000000000000000000000000000000000000000000000000600052603260045260246000fd5b6000602082019050610e596000830184610981565b9291505056fea2646970667358221220b494e0e3cd5dd50b12ea744ec970d9e6ebd38744a72043aa8234556a5e3a061764736f6c63430008140033",
  "linkReferences": {},
  "deployedLinkReferences": {}
}